{
  "_format": "hh-sol-artifact-1",
  "contractName": "NFTMarketplace",
  "sourceName": "contracts/NFTMarketplace.sol",
  "abi": [
    {
      "inputs": [],
      "stateMutability": "nonpayable",
      "type": "constructor"
    },
    {
      "inputs": [
        {
          "internalType": "address",
          "name": "sender",
          "type": "address"
        },
        {
          "internalType": "uint256",
          "name": "tokenId",
          "type": "uint256"
        },
        {
          "internalType": "address",
          "name": "owner",
          "type": "address"
        }
      ],
      "name": "ERC721IncorrectOwner",
      "type": "error"
    },
    {
      "inputs": [
        {
          "internalType": "address",
          "name": "operator",
          "type": "address"
        },
        {
          "internalType": "uint256",
          "name": "tokenId",
          "type": "uint256"
        }
      ],
      "name": "ERC721InsufficientApproval",
      "type": "error"
    },
    {
      "inputs": [
        {
          "internalType": "address",
          "name": "approver",
          "type": "address"
        }
      ],
      "name": "ERC721InvalidApprover",
      "type": "error"
    },
    {
      "inputs": [
        {
          "internalType": "address",
          "name": "operator",
          "type": "address"
        }
      ],
      "name": "ERC721InvalidOperator",
      "type": "error"
    },
    {
      "inputs": [
        {
          "internalType": "address",
          "name": "owner",
          "type": "address"
        }
      ],
      "name": "ERC721InvalidOwner",
      "type": "error"
    },
    {
      "inputs": [
        {
          "internalType": "address",
          "name": "receiver",
          "type": "address"
        }
      ],
      "name": "ERC721InvalidReceiver",
      "type": "error"
    },
    {
      "inputs": [
        {
          "internalType": "address",
          "name": "sender",
          "type": "address"
        }
      ],
      "name": "ERC721InvalidSender",
      "type": "error"
    },
    {
      "inputs": [
        {
          "internalType": "uint256",
          "name": "tokenId",
          "type": "uint256"
        }
      ],
      "name": "ERC721NonexistentToken",
      "type": "error"
    },
    {
      "inputs": [
        {
          "internalType": "address",
          "name": "owner",
          "type": "address"
        }
      ],
      "name": "OwnableInvalidOwner",
      "type": "error"
    },
    {
      "inputs": [
        {
          "internalType": "address",
          "name": "account",
          "type": "address"
        }
      ],
      "name": "OwnableUnauthorizedAccount",
      "type": "error"
    },
    {
      "inputs": [],
      "name": "ReentrancyGuardReentrantCall",
      "type": "error"
    },
    {
      "anonymous": false,
      "inputs": [
        {
          "indexed": true,
          "internalType": "address",
          "name": "owner",
          "type": "address"
        },
        {
          "indexed": true,
          "internalType": "address",
          "name": "approved",
          "type": "address"
        },
        {
          "indexed": true,
          "internalType": "uint256",
          "name": "tokenId",
          "type": "uint256"
        }
      ],
      "name": "Approval",
      "type": "event"
    },
    {
      "anonymous": false,
      "inputs": [
        {
          "indexed": true,
          "internalType": "address",
          "name": "owner",
          "type": "address"
        },
        {
          "indexed": true,
          "internalType": "address",
          "name": "operator",
          "type": "address"
        },
        {
          "indexed": false,
          "internalType": "bool",
          "name": "approved",
          "type": "bool"
        }
      ],
      "name": "ApprovalForAll",
      "type": "event"
    },
    {
      "anonymous": false,
      "inputs": [
        {
          "indexed": true,
          "internalType": "uint256",
          "name": "tokenId",
          "type": "uint256"
        },
        {
          "indexed": false,
          "internalType": "address",
          "name": "seller",
          "type": "address"
        },
        {
          "indexed": false,
          "internalType": "uint256",
          "name": "startingPrice",
          "type": "uint256"
        },
        {
          "indexed": false,
          "internalType": "uint256",
          "name": "endTime",
          "type": "uint256"
        }
      ],
      "name": "AuctionCreated",
      "type": "event"
    },
    {
      "anonymous": false,
      "inputs": [
        {
          "indexed": true,
          "internalType": "uint256",
          "name": "tokenId",
          "type": "uint256"
        },
        {
          "indexed": false,
          "internalType": "address",
          "name": "winner",
          "type": "address"
        },
        {
          "indexed": false,
          "internalType": "uint256",
          "name": "amount",
          "type": "uint256"
        }
      ],
      "name": "AuctionEnded",
      "type": "event"
    },
    {
      "anonymous": false,
      "inputs": [
        {
          "indexed": false,
          "internalType": "uint256",
          "name": "_fromTokenId",
          "type": "uint256"
        },
        {
          "indexed": false,
          "internalType": "uint256",
          "name": "_toTokenId",
          "type": "uint256"
        }
      ],
      "name": "BatchMetadataUpdate",
      "type": "event"
    },
    {
      "anonymous": false,
      "inputs": [
        {
          "indexed": true,
          "internalType": "uint256",
          "name": "tokenId",
          "type": "uint256"
        },
        {
          "indexed": false,
          "internalType": "address",
          "name": "bidder",
          "type": "address"
        },
        {
          "indexed": false,
          "internalType": "uint256",
          "name": "amount",
          "type": "uint256"
        }
      ],
      "name": "BidPlaced",
      "type": "event"
    },
    {
      "anonymous": false,
      "inputs": [
        {
          "indexed": true,
          "internalType": "uint256",
          "name": "tokenId",
          "type": "uint256"
        },
        {
          "indexed": false,
          "internalType": "address",
          "name": "seller",
          "type": "address"
        },
        {
          "indexed": false,
          "internalType": "address",
          "name": "owner",
          "type": "address"
        },
        {
          "indexed": false,
          "internalType": "uint256",
          "name": "price",
          "type": "uint256"
        },
        {
          "indexed": false,
          "internalType": "bool",
          "name": "sold",
          "type": "bool"
        }
      ],
      "name": "MarketItemCreated",
      "type": "event"
    },
    {
      "anonymous": false,
      "inputs": [
        {
          "indexed": true,
          "internalType": "uint256",
          "name": "tokenId",
          "type": "uint256"
        },
        {
          "indexed": false,
          "internalType": "address",
          "name": "seller",
          "type": "address"
        },
        {
          "indexed": false,
          "internalType": "address",
          "name": "buyer",
          "type": "address"
        },
        {
          "indexed": false,
          "internalType": "uint256",
          "name": "price",
          "type": "uint256"
        }
      ],
      "name": "MarketItemSold",
      "type": "event"
    },
    {
      "anonymous": false,
      "inputs": [
        {
          "indexed": false,
          "internalType": "uint256",
          "name": "_tokenId",
          "type": "uint256"
        }
      ],
      "name": "MetadataUpdate",
      "type": "event"
    },
    {
      "anonymous": false,
      "inputs": [
        {
          "indexed": true,
          "internalType": "uint256",
          "name": "tokenId",
          "type": "uint256"
        },
        {
          "indexed": false,
          "internalType": "address",
          "name": "from",
          "type": "address"
        },
        {
          "indexed": false,
          "internalType": "address",
          "name": "to",
          "type": "address"
        }
      ],
      "name": "NFTTransferred",
      "type": "event"
    },
    {
      "anonymous": false,
      "inputs": [
        {
          "indexed": true,
          "internalType": "address",
          "name": "previousOwner",
          "type": "address"
        },
        {
          "indexed": true,
          "internalType": "address",
          "name": "newOwner",
          "type": "address"
        }
      ],
      "name": "OwnershipTransferred",
      "type": "event"
    },
    {
      "anonymous": false,
      "inputs": [
        {
          "indexed": true,
          "internalType": "address",
          "name": "from",
          "type": "address"
        },
        {
          "indexed": true,
          "internalType": "address",
          "name": "to",
          "type": "address"
        },
        {
          "indexed": true,
          "internalType": "uint256",
          "name": "tokenId",
          "type": "uint256"
        }
      ],
      "name": "Transfer",
      "type": "event"
    },
    {
      "inputs": [
        {
          "internalType": "address",
          "name": "to",
          "type": "address"
        },
        {
          "internalType": "uint256",
          "name": "tokenId",
          "type": "uint256"
        }
      ],
      "name": "approve",
      "outputs": [],
      "stateMutability": "nonpayable",
      "type": "function"
    },
    {
      "inputs": [
        {
          "internalType": "address",
          "name": "owner",
          "type": "address"
        }
      ],
      "name": "balanceOf",
      "outputs": [
        {
          "internalType": "uint256",
          "name": "",
          "type": "uint256"
        }
      ],
      "stateMutability": "view",
      "type": "function"
    },
    {
      "inputs": [
        {
          "internalType": "uint256",
          "name": "tokenId",
          "type": "uint256"
        }
      ],
      "name": "buyItem",
      "outputs": [],
      "stateMutability": "payable",
      "type": "function"
    },
    {
      "inputs": [
        {
          "internalType": "uint256",
          "name": "tokenId",
          "type": "uint256"
        }
      ],
      "name": "cancelListing",
      "outputs": [],
      "stateMutability": "nonpayable",
      "type": "function"
    },
    {
      "inputs": [
        {
          "internalType": "uint256",
          "name": "tokenId",
          "type": "uint256"
        },
        {
          "internalType": "uint256",
          "name": "startingPrice",
          "type": "uint256"
        },
        {
          "internalType": "uint256",
          "name": "duration",
          "type": "uint256"
        }
      ],
      "name": "createAuction",
      "outputs": [],
      "stateMutability": "nonpayable",
      "type": "function"
    },
    {
      "inputs": [
        {
          "internalType": "uint256",
          "name": "tokenId",
          "type": "uint256"
        }
      ],
      "name": "endAuction",
      "outputs": [],
      "stateMutability": "nonpayable",
      "type": "function"
    },
    {
      "inputs": [],
      "name": "fetchActiveAuctions",
      "outputs": [
        {
          "components": [
            {
              "internalType": "uint256",
              "name": "tokenId",
              "type": "uint256"
            },
            {
              "internalType": "address payable",
              "name": "seller",
              "type": "address"
            },
            {
              "internalType": "uint256",
              "name": "startingPrice",
              "type": "uint256"
            },
            {
              "internalType": "uint256",
              "name": "highestBid",
              "type": "uint256"
            },
            {
              "internalType": "address payable",
              "name": "highestBidder",
              "type": "address"
            },
            {
              "internalType": "uint256",
              "name": "endTime",
              "type": "uint256"
            },
            {
              "internalType": "bool",
              "name": "active",
              "type": "bool"
            },
            {
              "internalType": "bool",
              "name": "ended",
              "type": "bool"
            }
          ],
          "internalType": "struct NFTMarketplace.Auction[]",
          "name": "",
          "type": "tuple[]"
        }
      ],
      "stateMutability": "view",
      "type": "function"
    },
    {
      "inputs": [],
      "name": "fetchItemsListed",
      "outputs": [
        {
          "components": [
            {
              "internalType": "uint256",
              "name": "tokenId",
              "type": "uint256"
            },
            {
              "internalType": "address payable",
              "name": "seller",
              "type": "address"
            },
            {
              "internalType": "address payable",
              "name": "owner",
              "type": "address"
            },
            {
              "internalType": "uint256",
              "name": "price",
              "type": "uint256"
            },
            {
              "internalType": "bool",
              "name": "sold",
              "type": "bool"
            },
            {
              "internalType": "bool",
              "name": "isListed",
              "type": "bool"
            }
          ],
          "internalType": "struct NFTMarketplace.MarketItem[]",
          "name": "",
          "type": "tuple[]"
        }
      ],
      "stateMutability": "view",
      "type": "function"
    },
    {
      "inputs": [],
      "name": "fetchMarketItems",
      "outputs": [
        {
          "components": [
            {
              "internalType": "uint256",
              "name": "tokenId",
              "type": "uint256"
            },
            {
              "internalType": "address payable",
              "name": "seller",
              "type": "address"
            },
            {
              "internalType": "address payable",
              "name": "owner",
              "type": "address"
            },
            {
              "internalType": "uint256",
              "name": "price",
              "type": "uint256"
            },
            {
              "internalType": "bool",
              "name": "sold",
              "type": "bool"
            },
            {
              "internalType": "bool",
              "name": "isListed",
              "type": "bool"
            }
          ],
          "internalType": "struct NFTMarketplace.MarketItem[]",
          "name": "",
          "type": "tuple[]"
        }
      ],
      "stateMutability": "view",
      "type": "function"
    },
    {
      "inputs": [],
      "name": "fetchMyNFTs",
      "outputs": [
        {
          "components": [
            {
              "internalType": "uint256",
              "name": "tokenId",
              "type": "uint256"
            },
            {
              "internalType": "address payable",
              "name": "seller",
              "type": "address"
            },
            {
              "internalType": "address payable",
              "name": "owner",
              "type": "address"
            },
            {
              "internalType": "uint256",
              "name": "price",
              "type": "uint256"
            },
            {
              "internalType": "bool",
              "name": "sold",
              "type": "bool"
            },
            {
              "internalType": "bool",
              "name": "isListed",
              "type": "bool"
            }
          ],
          "internalType": "struct NFTMarketplace.MarketItem[]",
          "name": "",
          "type": "tuple[]"
        }
      ],
      "stateMutability": "view",
      "type": "function"
    },
    {
      "inputs": [
        {
          "internalType": "uint256",
          "name": "tokenId",
          "type": "uint256"
        }
      ],
      "name": "getApproved",
      "outputs": [
        {
          "internalType": "address",
          "name": "",
          "type": "address"
        }
      ],
      "stateMutability": "view",
      "type": "function"
    },
    {
      "inputs": [
        {
          "internalType": "uint256",
          "name": "tokenId",
          "type": "uint256"
        }
      ],
      "name": "getAuction",
      "outputs": [
        {
          "components": [
            {
              "internalType": "uint256",
              "name": "tokenId",
              "type": "uint256"
            },
            {
              "internalType": "address payable",
              "name": "seller",
              "type": "address"
            },
            {
              "internalType": "uint256",
              "name": "startingPrice",
              "type": "uint256"
            },
            {
              "internalType": "uint256",
              "name": "highestBid",
              "type": "uint256"
            },
            {
              "internalType": "address payable",
              "name": "highestBidder",
              "type": "address"
            },
            {
              "internalType": "uint256",
              "name": "endTime",
              "type": "uint256"
            },
            {
              "internalType": "bool",
              "name": "active",
              "type": "bool"
            },
            {
              "internalType": "bool",
              "name": "ended",
              "type": "bool"
            }
          ],
          "internalType": "struct NFTMarketplace.Auction",
          "name": "",
          "type": "tuple"
        }
      ],
      "stateMutability": "view",
      "type": "function"
    },
    {
      "inputs": [],
      "name": "getListingPrice",
      "outputs": [
        {
          "internalType": "uint256",
          "name": "",
          "type": "uint256"
        }
      ],
      "stateMutability": "view",
      "type": "function"
    },
    {
      "inputs": [
        {
          "internalType": "uint256",
          "name": "tokenId",
          "type": "uint256"
        }
      ],
      "name": "getMarketItem",
      "outputs": [
        {
          "components": [
            {
              "internalType": "uint256",
              "name": "tokenId",
              "type": "uint256"
            },
            {
              "internalType": "address payable",
              "name": "seller",
              "type": "address"
            },
            {
              "internalType": "address payable",
              "name": "owner",
              "type": "address"
            },
            {
              "internalType": "uint256",
              "name": "price",
              "type": "uint256"
            },
            {
              "internalType": "bool",
              "name": "sold",
              "type": "bool"
            },
            {
              "internalType": "bool",
              "name": "isListed",
              "type": "bool"
            }
          ],
          "internalType": "struct NFTMarketplace.MarketItem",
          "name": "",
          "type": "tuple"
        }
      ],
      "stateMutability": "view",
      "type": "function"
    },
    {
      "inputs": [],
      "name": "getMintingPrice",
      "outputs": [
        {
          "internalType": "uint256",
          "name": "",
          "type": "uint256"
        }
      ],
      "stateMutability": "view",
      "type": "function"
    },
    {
      "inputs": [],
      "name": "getTotalMinted",
      "outputs": [
        {
          "internalType": "uint256",
          "name": "",
          "type": "uint256"
        }
      ],
      "stateMutability": "view",
      "type": "function"
    },
    {
      "inputs": [
        {
          "internalType": "address",
          "name": "owner",
          "type": "address"
        },
        {
          "internalType": "address",
          "name": "operator",
          "type": "address"
        }
      ],
      "name": "isApprovedForAll",
      "outputs": [
        {
          "internalType": "bool",
          "name": "",
          "type": "bool"
        }
      ],
      "stateMutability": "view",
      "type": "function"
    },
    {
      "inputs": [
        {
          "internalType": "uint256",
          "name": "tokenId",
          "type": "uint256"
        },
        {
          "internalType": "uint256",
          "name": "price",
          "type": "uint256"
        }
      ],
      "name": "listItemForSale",
      "outputs": [],
      "stateMutability": "payable",
      "type": "function"
    },
    {
      "inputs": [],
      "name": "listingPrice",
      "outputs": [
        {
          "internalType": "uint256",
          "name": "",
          "type": "uint256"
        }
      ],
      "stateMutability": "view",
      "type": "function"
    },
    {
      "inputs": [
        {
          "internalType": "string",
          "name": "tokenURI",
          "type": "string"
        }
      ],
      "name": "mintNFT",
      "outputs": [
        {
          "internalType": "uint256",
          "name": "",
          "type": "uint256"
        }
      ],
      "stateMutability": "payable",
      "type": "function"
    },
    {
      "inputs": [],
      "name": "mintingPrice",
      "outputs": [
        {
          "internalType": "uint256",
          "name": "",
          "type": "uint256"
        }
      ],
      "stateMutability": "view",
      "type": "function"
    },
    {
      "inputs": [],
      "name": "name",
      "outputs": [
        {
          "internalType": "string",
          "name": "",
          "type": "string"
        }
      ],
      "stateMutability": "view",
      "type": "function"
    },
    {
      "inputs": [],
      "name": "owner",
      "outputs": [
        {
          "internalType": "address",
          "name": "",
          "type": "address"
        }
      ],
      "stateMutability": "view",
      "type": "function"
    },
    {
      "inputs": [
        {
          "internalType": "uint256",
          "name": "tokenId",
          "type": "uint256"
        }
      ],
      "name": "ownerOf",
      "outputs": [
        {
          "internalType": "address",
          "name": "",
          "type": "address"
        }
      ],
      "stateMutability": "view",
      "type": "function"
    },
    {
      "inputs": [
        {
          "internalType": "uint256",
          "name": "tokenId",
          "type": "uint256"
        }
      ],
      "name": "placeBid",
      "outputs": [],
      "stateMutability": "payable",
      "type": "function"
    },
    {
      "inputs": [],
      "name": "renounceOwnership",
      "outputs": [],
      "stateMutability": "nonpayable",
      "type": "function"
    },
    {
      "inputs": [
        {
          "internalType": "address",
          "name": "from",
          "type": "address"
        },
        {
          "internalType": "address",
          "name": "to",
          "type": "address"
        },
        {
          "internalType": "uint256",
          "name": "tokenId",
          "type": "uint256"
        }
      ],
      "name": "safeTransferFrom",
      "outputs": [],
      "stateMutability": "nonpayable",
      "type": "function"
    },
    {
      "inputs": [
        {
          "internalType": "address",
          "name": "from",
          "type": "address"
        },
        {
          "internalType": "address",
          "name": "to",
          "type": "address"
        },
        {
          "internalType": "uint256",
          "name": "tokenId",
          "type": "uint256"
        },
        {
          "internalType": "bytes",
          "name": "data",
          "type": "bytes"
        }
      ],
      "name": "safeTransferFrom",
      "outputs": [],
      "stateMutability": "nonpayable",
      "type": "function"
    },
    {
      "inputs": [
        {
          "internalType": "address",
          "name": "operator",
          "type": "address"
        },
        {
          "internalType": "bool",
          "name": "approved",
          "type": "bool"
        }
      ],
      "name": "setApprovalForAll",
      "outputs": [],
      "stateMutability": "nonpayable",
      "type": "function"
    },
    {
      "inputs": [
        {
          "internalType": "bytes4",
          "name": "interfaceId",
          "type": "bytes4"
        }
      ],
      "name": "supportsInterface",
      "outputs": [
        {
          "internalType": "bool",
          "name": "",
          "type": "bool"
        }
      ],
      "stateMutability": "view",
      "type": "function"
    },
    {
      "inputs": [],
      "name": "symbol",
      "outputs": [
        {
          "internalType": "string",
          "name": "",
          "type": "string"
        }
      ],
      "stateMutability": "view",
      "type": "function"
    },
    {
      "inputs": [
        {
          "internalType": "uint256",
          "name": "tokenId",
          "type": "uint256"
        }
      ],
      "name": "tokenURI",
      "outputs": [
        {
          "internalType": "string",
          "name": "",
          "type": "string"
        }
      ],
      "stateMutability": "view",
      "type": "function"
    },
    {
      "inputs": [
        {
          "internalType": "address",
          "name": "from",
          "type": "address"
        },
        {
          "internalType": "address",
          "name": "to",
          "type": "address"
        },
        {
          "internalType": "uint256",
          "name": "tokenId",
          "type": "uint256"
        }
      ],
      "name": "transferFrom",
      "outputs": [],
      "stateMutability": "nonpayable",
      "type": "function"
    },
    {
      "inputs": [
        {
          "internalType": "address",
          "name": "to",
          "type": "address"
        },
        {
          "internalType": "uint256",
          "name": "tokenId",
          "type": "uint256"
        }
      ],
      "name": "transferNFT",
      "outputs": [],
      "stateMutability": "nonpayable",
      "type": "function"
    },
    {
      "inputs": [
        {
          "internalType": "address",
          "name": "newOwner",
          "type": "address"
        }
      ],
      "name": "transferOwnership",
      "outputs": [],
      "stateMutability": "nonpayable",
      "type": "function"
    },
    {
      "inputs": [
        {
          "internalType": "uint256",
          "name": "_listingPrice",
          "type": "uint256"
        }
      ],
      "name": "updateListingPrice",
      "outputs": [],
      "stateMutability": "nonpayable",
      "type": "function"
    },
    {
      "inputs": [
        {
          "internalType": "uint256",
          "name": "_mintingPrice",
          "type": "uint256"
        }
      ],
      "name": "updateMintingPrice",
      "outputs": [],
      "stateMutability": "nonpayable",
      "type": "function"
    },
    {
      "inputs": [],
      "name": "withdraw",
      "outputs": [],
      "stateMutability": "nonpayable",
      "type": "function"
    }
  ],
  "bytecode": "0x60806040526608e1bc9bf04000600b5566038d7ea4c68000600c5534801561002657600080fd5b50336040518060400160405280600881526020016713995e1d5cd3919560c21b815250604051806040016040528060048152602001631393919560e21b815250816000908161007591906101b8565b50600161008282826101b8565b5050506001600160a01b0381166100b357604051631e4fbdf760e01b81526000600482015260240160405180910390fd5b6100bc816100c7565b506001600855610276565b600780546001600160a01b038381166001600160a01b0319831681179093556040519116919082907f8be0079c531659141344cd1fd0a4f28419497f9722a3daafe3b4186f6b6457e090600090a35050565b634e487b7160e01b600052604160045260246000fd5b600181811c9082168061014357607f821691505b60208210810361016357634e487b7160e01b600052602260045260246000fd5b50919050565b601f8211156101b357806000526020600020601f840160051c810160208510156101905750805b601f840160051c820191505b818110156101b0576000815560010161019c565b50505b505050565b81516001600160401b038111156101d1576101d1610119565b6101e5816101df845461012f565b84610169565b6020601f82116001811461021957600083156102015750848201515b600019600385901b1c1916600184901b1784556101b0565b600084815260208120601f198516915b828110156102495787850151825560209485019460019092019101610229565b50848210156102675786840151600019600387901b60f8161c191681555b50505050600190811b01905550565b61350a806102856000396000f3fe6080604052600436106102255760003560e01c806378bd793511610123578063c4100ded116100ab578063e7fb74c71161006f578063e7fb74c714610619578063e985e9c51461062c578063f1d9e5451461064c578063f2fde38b1461066e578063fb37e8831461068e57600080fd5b8063c4100ded14610583578063c78f19f914610596578063c7be7a49146105ac578063c87b56dd146105d9578063cda4beef146105f957600080fd5b80639979ef45116100f25780639979ef45146104f0578063a22cb46514610503578063ae677aa314610523578063b88d4fde14610543578063b9a2de3a1461056357600080fd5b806378bd7935146104705780638da5cb5b1461049d57806394ab67fe146104bb57806395d89b41146104db57600080fd5b8063305a67a8116101b15780635788ff36116101755780635788ff36146103e65780636352211e1461040657806370a0823114610426578063715018a61461044657806377d247621461045b57600080fd5b8063305a67a81461036657806335db70b5146103865780633ccfd60b1461039c57806342842e0e146103b157806345f8fa80146103d157600080fd5b80630ca1c5c9116101f85780630ca1c5c9146102db5780630f08efe0146102fa57806312e855851461031c578063202e37401461033157806323b872dd1461034657600080fd5b806301ffc9a71461022a57806306fdde031461025f578063081812fc14610281578063095ea7b3146102b9575b600080fd5b34801561023657600080fd5b5061024a610245366004612e08565b6106a1565b60405190151581526020015b60405180910390f35b34801561026b57600080fd5b506102746106cc565b6040516102569190612e75565b34801561028d57600080fd5b506102a161029c366004612e88565b61075e565b6040516001600160a01b039091168152602001610256565b3480156102c557600080fd5b506102d96102d4366004612ebd565b610787565b005b3480156102e757600080fd5b506009545b604051908152602001610256565b34801561030657600080fd5b5061030f610796565b6040516102569190612f35565b34801561032857600080fd5b50600b546102ec565b34801561033d57600080fd5b5061030f61095e565b34801561035257600080fd5b506102d9610361366004612f83565b610b2c565b34801561037257600080fd5b506102d9610381366004612e88565b610bbc565b34801561039257600080fd5b506102ec600c5481565b3480156103a857600080fd5b506102d9610d0c565b3480156103bd57600080fd5b506102d96103cc366004612f83565b610d95565b3480156103dd57600080fd5b5061030f610db5565b3480156103f257600080fd5b506102d9610401366004612e88565b610f81565b34801561041257600080fd5b506102a1610421366004612e88565b610f8e565b34801561043257600080fd5b506102ec610441366004612fc0565b610f99565b34801561045257600080fd5b506102d9610fe1565b34801561046757600080fd5b50600c546102ec565b34801561047c57600080fd5b5061049061048b366004612e88565b610ff5565b6040516102569190613040565b3480156104a957600080fd5b506007546001600160a01b03166102a1565b3480156104c757600080fd5b506102d96104d6366004612ebd565b611082565b3480156104e757600080fd5b50610274611286565b6102d96104fe366004612e88565b611295565b34801561050f57600080fd5b506102d961051e36600461304f565b6114ba565b34801561052f57600080fd5b506102d961053e366004612e88565b6114c5565b34801561054f57600080fd5b506102d961055e36600461311b565b6114d2565b34801561056f57600080fd5b506102d961057e366004612e88565b6114ea565b6102d9610591366004613197565b61175b565b3480156105a257600080fd5b506102ec600b5481565b3480156105b857600080fd5b506105cc6105c7366004612e88565b6119af565b60405161025691906131b9565b3480156105e557600080fd5b506102746105f4366004612e88565b611a29565b34801561060557600080fd5b506102d96106143660046131c7565b611b3a565b6102d9610627366004612e88565b611e9c565b34801561063857600080fd5b5061024a6106473660046131f3565b6120d7565b34801561065857600080fd5b50610661612105565b6040516102569190613226565b34801561067a57600080fd5b506102d9610689366004612fc0565b6122d6565b6102ec61069c36600461326a565b612311565b60006001600160e01b03198216632483248360e11b14806106c657506106c68261244e565b92915050565b6060600080546106db906132b3565b80601f0160208091040260200160405190810160405280929190818152602001828054610707906132b3565b80156107545780601f1061072957610100808354040283529160200191610754565b820191906000526020600020905b81548152906001019060200180831161073757829003601f168201915b5050505050905090565b60006107698261249e565b506000828152600460205260409020546001600160a01b03166106c6565b6107928282336124d7565b5050565b600954606090600060015b828111610805576000818152600d6020526040902060040154610100900460ff1680156107e057506000818152600d602052604090206004015460ff16155b156107f357816107ef81613303565b9250505b806107fd81613303565b9150506107a1565b5060008167ffffffffffffffff8111156108215761082161308b565b60405190808252806020026020018201604052801561085a57816020015b610847612d62565b81526020019060019003908161083f5790505b509050600060015b848111610954576000818152600d6020526040902060040154610100900460ff1680156108a157506000818152600d602052604090206004015460ff16155b15610942576000818152600d6020908152604091829020825160c0810184528154815260018201546001600160a01b03908116938201939093526002820154909216928201929092526003820154606082015260049091015460ff8082161515608084015261010090910416151560a082015283518490849081106109285761092861331c565b6020026020010181905250818061093e90613303565b9250505b8061094c81613303565b915050610862565b5090949350505050565b600954606090600060015b8281116109d5576000818152600d60205260409020600201546001600160a01b0316331480156109b057506000818152600d6020526040902060040154610100900460ff16155b156109c357816109bf81613303565b9250505b806109cd81613303565b915050610969565b5060008167ffffffffffffffff8111156109f1576109f161308b565b604051908082528060200260200182016040528015610a2a57816020015b610a17612d62565b815260200190600190039081610a0f5790505b509050600060015b848111610954576000818152600d60205260409020600201546001600160a01b031633148015610a7957506000818152600d6020526040902060040154610100900460ff16155b15610b1a576000818152600d6020908152604091829020825160c0810184528154815260018201546001600160a01b03908116938201939093526002820154909216928201929092526003820154606082015260049091015460ff8082161515608084015261010090910416151560a08201528351849084908110610b0057610b0061331c565b60200260200101819052508180610b1690613303565b9250505b80610b2481613303565b915050610a32565b6001600160a01b038216610b5b57604051633250574960e11b8152600060048201526024015b60405180910390fd5b6000610b688383336124e4565b9050836001600160a01b0316816001600160a01b031614610bb6576040516364283d7b60e01b81526001600160a01b0380861660048301526024820184905282166044820152606401610b52565b50505050565b610bc46125dd565b6000818152600d6020526040902060018101546001600160a01b03163314610c275760405162461bcd60e51b815260206004820152601660248201527513db9b1e481cd95b1b195c8818d85b8818d85b98d95b60521b6044820152606401610b52565b6004810154610100900460ff16610c725760405162461bcd60e51b815260206004820152600f60248201526e125d195b481b9bdd081b1a5cdd1959608a1b6044820152606401610b52565b600481015460ff1615610cbb5760405162461bcd60e51b8152602060048201526011602482015270125d195b48185b1c9958591e481cdbdb19607a1b6044820152606401610b52565b60048101805461ff0019169055600281018054336001600160a01b03199182168117909255600183018054909116905560006003830155610cfe90309084612607565b50610d096001600855565b50565b610d146126b7565b4780610d5b5760405162461bcd60e51b81526020600482015260166024820152754e6f2062616c616e636520746f20776974686472617760501b6044820152606401610b52565b6007546040516001600160a01b039091169082156108fc029083906000818181858888f19350505050158015610792573d6000803e3d6000fd5b610db0838383604051806020016040528060008152506114d2565b505050565b600954606090600060015b828111610e2b576000818152600d60205260409020600101546001600160a01b031633148015610e0657506000818152600d6020526040902060040154610100900460ff165b15610e195781610e1581613303565b9250505b80610e2381613303565b915050610dc0565b5060008167ffffffffffffffff811115610e4757610e4761308b565b604051908082528060200260200182016040528015610e8057816020015b610e6d612d62565b815260200190600190039081610e655790505b509050600060015b848111610954576000818152600d60205260409020600101546001600160a01b031633148015610ece57506000818152600d6020526040902060040154610100900460ff165b15610f6f576000818152600d6020908152604091829020825160c0810184528154815260018201546001600160a01b03908116938201939093526002820154909216928201929092526003820154606082015260049091015460ff8082161515608084015261010090910416151560a08201528351849084908110610f5557610f5561331c565b60200260200101819052508180610f6b90613303565b9250505b80610f7981613303565b915050610e88565b610f896126b7565b600c55565b60006106c68261249e565b60006001600160a01b038216610fc5576040516322718ad960e21b815260006004820152602401610b52565b506001600160a01b031660009081526003602052604090205490565b610fe96126b7565b610ff360006126e4565b565b610ffd612d97565b506000908152600e6020908152604091829020825161010080820185528254825260018301546001600160a01b03908116948301949094526002830154948201949094526003820154606082015260048201549092166080830152600581015460a08301526006015460ff808216151560c0840152929004909116151560e082015290565b61108a6125dd565b3361109482610f8e565b6001600160a01b0316146110ea5760405162461bcd60e51b815260206004820152601760248201527f4f6e6c79206f776e65722063616e207472616e736665720000000000000000006044820152606401610b52565b6000818152600d6020526040902060040154610100900460ff16156111515760405162461bcd60e51b815260206004820152601b60248201527f43616e6e6f74207472616e73666572206c6973746564206974656d00000000006044820152606401610b52565b6000818152600e602052604090206006015460ff16156111b35760405162461bcd60e51b815260206004820152601f60248201527f43616e6e6f74207472616e73666572206974656d20696e2061756374696f6e006044820152606401610b52565b6001600160a01b0382166112095760405162461bcd60e51b815260206004820152601f60248201527f43616e6e6f74207472616e7366657220746f207a65726f2061646472657373006044820152606401610b52565b611214338383612607565b6000818152600d602090815260409182902060020180546001600160a01b0319166001600160a01b03861690811790915582513381529182015282917f67043fac5fd2bf9edbb46ee495aaed7f97f91d43507d373be2b592af19b8c0a891015b60405180910390a26107926001600855565b6060600180546106db906132b3565b61129d6125dd565b6000818152600e60205260409020600681015460ff166112f45760405162461bcd60e51b815260206004820152601260248201527141756374696f6e206e6f742061637469766560701b6044820152606401610b52565b8060050154421061133b5760405162461bcd60e51b8152602060048201526011602482015270105d58dd1a5bdb881a185cc8195b991959607a1b6044820152606401610b52565b8060030154341161139e5760405162461bcd60e51b815260206004820152602760248201527f426964206d75737420626520686967686572207468616e2063757272656e74206044820152661a1a59da195cdd60ca1b6064820152608401610b52565b80600201543410156113fe5760405162461bcd60e51b815260206004820152602360248201527f426964206d757374206265206174206c65617374207374617274696e6720707260448201526269636560e81b6064820152608401610b52565b60048101546001600160a01b03161561145357600481015460038201546040516001600160a01b039092169181156108fc0291906000818181858888f19350505050158015611451573d6000803e3d6000fd5b505b34600382018190556004820180546001600160a01b0319163390811790915560408051918252602082019290925283917f0e54eff26401bf69b81b26f60bd85ef47f5d85275c1d268d84f68d6897431c4791015b60405180910390a250610d096001600855565b610792338383612736565b6114cd6126b7565b600b55565b6114dd848484610b2c565b610bb633858585856127d5565b6114f26125dd565b6000818152600e60205260409020600681015460ff166115495760405162461bcd60e51b815260206004820152601260248201527141756374696f6e206e6f742061637469766560701b6044820152606401610b52565b806005015442101561159d5760405162461bcd60e51b815260206004820152601960248201527f41756374696f6e20686173206e6f7420656e64656420796574000000000000006044820152606401610b52565b6006810154610100900460ff16156115ef5760405162461bcd60e51b8152602060048201526015602482015274105d58dd1a5bdb88185b1c9958591e48195b991959605a1b6044820152606401610b52565b60068101805461ffff191661010017905560048101546001600160a01b0316156116fa57600481015461162d9030906001600160a01b031684612607565b600181015460038201546040516001600160a01b039092169181156108fc0291906000818181858888f1935050505015801561166d573d6000803e3d6000fd5b506004810180546000848152600d60205260409081902060020180546001600160a01b0319166001600160a01b0393841617905591546003840154925185937fd2aa34a4fdbbc6dff6a3e56f46e0f3ae2a31d7785ff3487aa5c95c642acea501936116ed9316916001600160a01b03929092168252602082015260400190565b60405180910390a2610cfe565b60018101546117149030906001600160a01b031684612607565b6001810154604080516001600160a01b0390921682526000602083015283917fd2aa34a4fdbbc6dff6a3e56f46e0f3ae2a31d7785ff3487aa5c95c642acea50191016114a7565b6117636125dd565b3361176d83610f8e565b6001600160a01b0316146117c35760405162461bcd60e51b815260206004820152601860248201527f4f6e6c79206f776e65722063616e206c697374206974656d00000000000000006044820152606401610b52565b600081116118135760405162461bcd60e51b815260206004820152601c60248201527f5072696365206d757374206265206174206c65617374203120776569000000006044820152606401610b52565b600b54341461185b5760405162461bcd60e51b81526020600482015260146024820152734d75737420706179206c697374696e672066656560601b6044820152606401610b52565b6000828152600e602052604090206006015460ff16156118b25760405162461bcd60e51b815260206004820152601260248201527124ba32b69034b99034b71030bab1ba34b7b760711b6044820152606401610b52565b6040805160c0810182528381523360208083018281523084860181815260608601888152600060808801818152600160a08a018181528d8452600d9098529990912097518855935197870180546001600160a01b03199081166001600160a01b039a8b161790915591516002880180549093169816979097179055945160038501555160049093018054915161ffff1990921693151561ff0019169390931761010091151591909102179091556119699184612607565b604080513381523060208201529081018290526000606082015282907fb640004f1d14576d0c209e240cad0410e0d8c0c33a09375861fbadae2588a98d90608001611274565b6119b7612d62565b506000908152600d6020908152604091829020825160c0810184528154815260018201546001600160a01b03908116938201939093526002820154909216928201929092526003820154606082015260049091015460ff8082161515608084015261010090910416151560a082015290565b6060611a348261249e565b5060008281526006602052604081208054611a4e906132b3565b80601f0160208091040260200160405190810160405280929190818152602001828054611a7a906132b3565b8015611ac75780601f10611a9c57610100808354040283529160200191611ac7565b820191906000526020600020905b815481529060010190602001808311611aaa57829003601f168201915b505050505090506000611ae560408051602081019091526000815290565b90508051600003611af7575092915050565b815115611b29578082604051602001611b11929190613332565b60405160208183030381529060405292505050919050565b611b3284612900565b949350505050565b611b426125dd565b33611b4c84610f8e565b6001600160a01b031614611ba25760405162461bcd60e51b815260206004820152601d60248201527f4f6e6c79206f776e65722063616e206372656174652061756374696f6e0000006044820152606401610b52565b6000838152600d6020526040902060040154610100900460ff1615611c095760405162461bcd60e51b815260206004820152601760248201527f4974656d206973206c697374656420666f722073616c650000000000000000006044820152606401610b52565b6000838152600e602052604090206006015460ff1615611c645760405162461bcd60e51b815260206004820152601660248201527541756374696f6e20616c72656164792061637469766560501b6044820152606401610b52565b610e10811015611cb65760405162461bcd60e51b815260206004820181905260248201527f4475726174696f6e206d757374206265206174206c65617374203120686f75726044820152606401610b52565b62093a80811115611d095760405162461bcd60e51b815260206004820152601f60248201527f4475726174696f6e206d757374206265206174206d6f737420372064617973006044820152606401610b52565b6000611d158242613361565b9050604051806101000160405280858152602001336001600160a01b031681526020018481526020016000815260200160006001600160a01b0316815260200182815260200160011515815260200160001515815250600e60008681526020019081526020016000206000820151816000015560208201518160010160006101000a8154816001600160a01b0302191690836001600160a01b03160217905550604082015181600201556060820151816003015560808201518160040160006101000a8154816001600160a01b0302191690836001600160a01b0316021790555060a0820151816005015560c08201518160060160006101000a81548160ff02191690831515021790555060e08201518160060160016101000a81548160ff021916908315150217905550905050611e4e333086612607565b604080513381526020810185905290810182905284907fc9050d42180a61cb0d9ebb8ad118b62fe6eab12cf12ff752c4a0cc7da9ddf6279060600160405180910390a250610db06001600855565b611ea46125dd565b6000818152600d602052604090206004810154610100900460ff16611f0b5760405162461bcd60e51b815260206004820152601860248201527f4974656d206e6f74206c697374656420666f722073616c6500000000000000006044820152606401610b52565b600481015460ff1615611f545760405162461bcd60e51b8152602060048201526011602482015270125d195b48185b1c9958591e481cdbdb19607a1b6044820152606401610b52565b80600301543414611fa75760405162461bcd60e51b815260206004820152601e60248201527f506c65617365207375626d6974207468652061736b696e6720707269636500006044820152606401610b52565b600180820180546002840180546001600160a01b0319908116331790915560048501805461ffff19169094179093559182169055600a80546001600160a01b0390921691906000611ff783613303565b9190505550612007303385612607565b600754600b546040516001600160a01b039092169181156108fc0291906000818181858888f19350505050158015612043573d6000803e3d6000fd5b506040516001600160a01b038216903480156108fc02916000818181858888f19350505050158015612079573d6000803e3d6000fd5b506003820154604080516001600160a01b03841681523360208201529081019190915283907f150ffca547cf855e7fcf5daa82e41c6523b5fb2c8b1309bbb6cf2f87c6ae5a319060600160405180910390a25050610d096001600855565b6001600160a01b03918216600090815260056020908152604080832093909416825291909152205460ff1690565b600954606090600060015b828111612174576000818152600e602052604090206006015460ff16801561214f57506000818152600e6020526040902060060154610100900460ff16155b15612162578161215e81613303565b9250505b8061216c81613303565b915050612110565b5060008167ffffffffffffffff8111156121905761219061308b565b6040519080825280602002602001820160405280156121c957816020015b6121b6612d97565b8152602001906001900390816121ae5790505b509050600060015b848111610954576000818152600e602052604090206006015460ff16801561221057506000818152600e6020526040902060060154610100900460ff16155b156122c4576000818152600e6020908152604091829020825161010080820185528254825260018301546001600160a01b03908116948301949094526002830154948201949094526003820154606082015260048201549092166080830152600581015460a08301526006015460ff808216151560c0840152929004909116151560e082015283518490849081106122aa576122aa61331c565b602002602001018190525081806122c090613303565b9250505b806122ce81613303565b9150506121d1565b6122de6126b7565b6001600160a01b03811661230857604051631e4fbdf760e01b815260006004820152602401610b52565b610d09816126e4565b6000600c543410156123715760405162461bcd60e51b8152602060048201526024808201527f5072696365206d757374206265206174206c65617374206d696e74696e6720706044820152637269636560e01b6064820152608401610b52565b6009805490600061238183613303565b90915550506009546123933382612975565b61239d81846129da565b6040805160c0810182528281526000602080830182815233848601908152606085018481526080860185815260a08701868152898752600d909552969094209451855590516001850180546001600160a01b039283166001600160a01b031991821617909155915160028601805491909216921691909117905590516003830155915160049091018054925115156101000261ff00199215159290921661ffff199093169290921717905592915050565b60006001600160e01b031982166380ac58cd60e01b148061247f57506001600160e01b03198216635b5e139f60e01b145b806106c657506301ffc9a760e01b6001600160e01b03198316146106c6565b6000818152600260205260408120546001600160a01b0316806106c657604051637e27328960e01b815260048101849052602401610b52565b610db08383836001612a2a565b6000828152600260205260408120546001600160a01b039081169083161561251157612511818486612b30565b6001600160a01b0381161561254f5761252e600085600080612a2a565b6001600160a01b038116600090815260036020526040902080546000190190555b6001600160a01b0385161561257e576001600160a01b0385166000908152600360205260409020805460010190555b60008481526002602052604080822080546001600160a01b0319166001600160a01b0389811691821790925591518793918516917fddf252ad1be2c89b69c2b068fc378daa952ba7f163c4a11628f55a4df523b3ef91a4949350505050565b60026008540361260057604051633ee5aeb560e01b815260040160405180910390fd5b6002600855565b6001600160a01b03821661263157604051633250574960e11b815260006004820152602401610b52565b600061263f838360006124e4565b90506001600160a01b03811661266b57604051637e27328960e01b815260048101839052602401610b52565b836001600160a01b0316816001600160a01b031614610bb6576040516364283d7b60e01b81526001600160a01b0380861660048301526024820184905282166044820152606401610b52565b6007546001600160a01b03163314610ff35760405163118cdaa760e01b8152336004820152602401610b52565b600780546001600160a01b038381166001600160a01b0319831681179093556040519116919082907f8be0079c531659141344cd1fd0a4f28419497f9722a3daafe3b4186f6b6457e090600090a35050565b6001600160a01b03821661276857604051630b61174360e31b81526001600160a01b0383166004820152602401610b52565b6001600160a01b03838116600081815260056020908152604080832094871680845294825291829020805460ff191686151590811790915591519182527f17307eab39ab6107e8899845ad3d59bd9653f200f220920489ca2b5937696c31910160405180910390a3505050565b6001600160a01b0383163b156128f957604051630a85bd0160e11b81526001600160a01b0384169063150b7a0290612817908890889087908790600401613374565b6020604051808303816000875af1925050508015612852575060408051601f3d908101601f1916820190925261284f918101906133b1565b60015b6128bb573d808015612880576040519150601f19603f3d011682016040523d82523d6000602084013e612885565b606091505b5080516000036128b357604051633250574960e11b81526001600160a01b0385166004820152602401610b52565b805160208201fd5b6001600160e01b03198116630a85bd0160e11b146128f757604051633250574960e11b81526001600160a01b0385166004820152602401610b52565b505b5050505050565b606061290b8261249e565b50600061292360408051602081019091526000815290565b90506000815111612943576040518060200160405280600081525061296e565b8061294d84612b94565b60405160200161295e929190613332565b6040516020818303038152906040525b9392505050565b6001600160a01b03821661299f57604051633250574960e11b815260006004820152602401610b52565b60006129ad838360006124e4565b90506001600160a01b03811615610db0576040516339e3563760e11b815260006004820152602401610b52565b60008281526006602052604090206129f28282613415565b506040518281527ff8e1a15aba9398e019f0b49df1a4fde98ee17ae345cb5f6b5e2c27f5033e8ce79060200160405180910390a15050565b8080612a3e57506001600160a01b03821615155b15612b00576000612a4e8461249e565b90506001600160a01b03831615801590612a7a5750826001600160a01b0316816001600160a01b031614155b8015612a8d5750612a8b81846120d7565b155b15612ab65760405163a9fbf51f60e01b81526001600160a01b0384166004820152602401610b52565b8115612afe5783856001600160a01b0316826001600160a01b03167f8c5be1e5ebec7d5bd14f71427d1e84f3dd0314c0f7b2291e5b200ac8c7c3b92560405160405180910390a45b505b5050600090815260046020526040902080546001600160a01b0319166001600160a01b0392909216919091179055565b612b3b838383612c27565b610db0576001600160a01b038316612b6957604051637e27328960e01b815260048101829052602401610b52565b60405163177e802f60e01b81526001600160a01b038316600482015260248101829052604401610b52565b60606000612ba183612c8a565b600101905060008167ffffffffffffffff811115612bc157612bc161308b565b6040519080825280601f01601f191660200182016040528015612beb576020820181803683370190505b5090508181016020015b600019016f181899199a1a9b1b9c1cb0b131b232b360811b600a86061a8153600a8504945084612bf557509392505050565b60006001600160a01b03831615801590611b325750826001600160a01b0316846001600160a01b03161480612c615750612c6184846120d7565b80611b325750506000908152600460205260409020546001600160a01b03908116911614919050565b60008072184f03e93ff9f4daa797ed6e38ed64bf6a1f0160401b8310612cc95772184f03e93ff9f4daa797ed6e38ed64bf6a1f0160401b830492506040015b6d04ee2d6d415b85acef81000000008310612cf5576d04ee2d6d415b85acef8100000000830492506020015b662386f26fc100008310612d1357662386f26fc10000830492506010015b6305f5e1008310612d2b576305f5e100830492506008015b6127108310612d3f57612710830492506004015b60648310612d51576064830492506002015b600a83106106c65760010192915050565b6040805160c081018252600080825260208201819052918101829052606081018290526080810182905260a081019190915290565b6040518061010001604052806000815260200160006001600160a01b03168152602001600081526020016000815260200160006001600160a01b03168152602001600081526020016000151581526020016000151581525090565b6001600160e01b031981168114610d0957600080fd5b600060208284031215612e1a57600080fd5b813561296e81612df2565b60005b83811015612e40578181015183820152602001612e28565b50506000910152565b60008151808452612e61816020860160208601612e25565b601f01601f19169290920160200192915050565b60208152600061296e6020830184612e49565b600060208284031215612e9a57600080fd5b5035919050565b80356001600160a01b0381168114612eb857600080fd5b919050565b60008060408385031215612ed057600080fd5b612ed983612ea1565b946020939093013593505050565b8051825260018060a01b03602082015116602083015260018060a01b0360408201511660408301526060810151606083015260808101511515608083015260a0810151151560a08301525050565b602080825282518282018190526000918401906040840190835b81811015612f7857612f62838551612ee7565b6020939093019260c09290920191600101612f4f565b509095945050505050565b600080600060608486031215612f9857600080fd5b612fa184612ea1565b9250612faf60208501612ea1565b929592945050506040919091013590565b600060208284031215612fd257600080fd5b61296e82612ea1565b8051825260018060a01b036020820151166020830152604081015160408301526060810151606083015260018060a01b03608082015116608083015260a081015160a083015260c0810151151560c083015260e0810151610db060e084018215159052565b61010081016106c68284612fdb565b6000806040838503121561306257600080fd5b61306b83612ea1565b91506020830135801515811461308057600080fd5b809150509250929050565b634e487b7160e01b600052604160045260246000fd5b60008067ffffffffffffffff8411156130bc576130bc61308b565b50604051601f19601f85018116603f0116810181811067ffffffffffffffff821117156130eb576130eb61308b565b60405283815290508082840185101561310357600080fd5b83836020830137600060208583010152509392505050565b6000806000806080858703121561313157600080fd5b61313a85612ea1565b935061314860208601612ea1565b925060408501359150606085013567ffffffffffffffff81111561316b57600080fd5b8501601f8101871361317c57600080fd5b61318b878235602084016130a1565b91505092959194509250565b600080604083850312156131aa57600080fd5b50508035926020909101359150565b60c081016106c68284612ee7565b6000806000606084860312156131dc57600080fd5b505081359360208301359350604090920135919050565b6000806040838503121561320657600080fd5b61320f83612ea1565b915061321d60208401612ea1565b90509250929050565b602080825282518282018190526000918401906040840190835b81811015612f7857613253838551612fdb565b602093909301926101009290920191600101613240565b60006020828403121561327c57600080fd5b813567ffffffffffffffff81111561329357600080fd5b8201601f810184136132a457600080fd5b611b32848235602084016130a1565b600181811c908216806132c757607f821691505b6020821081036132e757634e487b7160e01b600052602260045260246000fd5b50919050565b634e487b7160e01b600052601160045260246000fd5b600060018201613315576133156132ed565b5060010190565b634e487b7160e01b600052603260045260246000fd5b60008351613344818460208801612e25565b835190830190613358818360208801612e25565b01949350505050565b808201808211156106c6576106c66132ed565b6001600160a01b03858116825284166020820152604081018390526080606082018190526000906133a790830184612e49565b9695505050505050565b6000602082840312156133c357600080fd5b815161296e81612df2565b601f821115610db057806000526020600020601f840160051c810160208510156133f55750805b601f840160051c820191505b818110156128f95760008155600101613401565b815167ffffffffffffffff81111561342f5761342f61308b565b6134438161343d84546132b3565b846133ce565b6020601f821160018114613477576000831561345f5750848201515b600019600385901b1c1916600184901b1784556128f9565b600084815260208120601f198516915b828110156134a75787850151825560209485019460019092019101613487565b50848210156134c55786840151600019600387901b60f8161c191681555b50505050600190811b0190555056fea2646970667358221220400b95916723407ab699b0e2826cfa7c0563020fea9368e45859d2dbdf6fceec64736f6c634300081c0033",
  "linkReferences": {},
  "deployedLinkReferences": {}
}